:080000002405040000000000CB
:100400003220EF00C3202000008041001040BA00DD
:100410000160EF00000006000A0D0000496E0000B8
:10042000697400002E2E00002E0000003220EF0024
:1004300023222000008041001040BA000160EF003C
:10044000000006000A0D0000526500006164000013
:10045000206F0000722000005772000069740000D5
:10046000653A0000200000003220EF000324200045
:10047000008041001040BA000160EF00000006005B
:100480000A0D000041640000647200006573000002
:10049000732000004C6F000063610000746900006D
:1004A0006F6E00003A200000000000003220EF00D4
:1004B00023262000008041001040BA000160EF00B8
:1004C000000006000A0D0000416400006472000094
:1004D00065730000732000006C6F00006361000012
:1004E000746900006F6E00003A200000255800007B
:1004F000000000003220EF0063282000008041004F
:100500001040BA000160EF0000000600202D00003E
:100510002D2000004461000074610000207600007E
:10052000616C0000756500003A200000255800004D
:100530000D0A0000000000003220EF00832A200096
:10054000008041001040BA000160EF00000006008A
:100550000D0A000041640000647200006573000031
:10056000732000006C6F000063610000746900007C
:100570006F6E00003A250000580000003220EF00A6
:10058000A32C2000008041001040BA000160EF0061
:1005900000000600202D00002D2000004E65000008
:1005A0007720000064610000746100002076000084
:1005B000616C0000756500003A200000000000003A
:1005C0003220EF00C32E2000008041001040BA000E
:1005D0000160EF0000000600202D00002D2000002B
:1005E0004E65000077200000766100006C75000009
:1005F000653A000020000000C862A800C842A800B8
:1006000000000600851F780005B024009E01090047
:10061000000000008502E90003003A000028EF0016
:1006200000002000060037003202AE00F7FF37005E
:100630003202F8000008F900B01180003222A9004F
:10064000CF02780000000600851F78000E68EF00DA
:100650003202AE0008003700020302000000000072
:100660000EE8B7000EC8BF003302AE00FEFF370031
:1006700034E2B7003562EF007E3E09000000000062
:100680000EC8BF000000FB000000E000F0FF3200D9
:100690007440800093032000041CE1000600350034
:1006A000744080000443B1000440780000E0B700CB
:1006B000110037001000370074408000130620003E
:1006C000041CE10007003E0074408000A3072000E6
:1006D000041CE100030039000EC8BF00F04DB20059
:1006E000010037000EC8BF001044B1000080FB00BD
:1006F0006A00400000003700CF02780000000600CA
:10070000851F780024030200000000000DE8B700F8
:1007100024030200000000000CE8B70064408000E1
:10072000D4CDB20003003A000DC8BF000800370066
:10073000070037000DC8BF000160EF00C402DD00F4
:10074000644080000960EF00048042000000370030
:10075000CF02780000000600800178000180FD00D3
:1007600054C0B3000360ED000860ED0013003200D8
:1007700003007800C419DD004C00DE00F000B20078
:1007800004003A006124E1000200320003E0AE0000
:10079000F4FF37000003B000A20320000200E100D4
:1007A000010039000240B4003302AE00FEFF370002
:1007B00034A2B70003E0A800EAFF370000000600FB
:1007C000F0FF2F001862AE00050037001842AF009E
:1007D000FEFF3700811088001842AF00FEFF37008F
:1007E0000000200014C2AF000000E8000000060076
:1007F0001862AE00040037001422A8001422AF00D3
:10080000FEFF3700030037001402A8001402AF00F7
:10081000FEFF370001CAB300E00302000000000041
:100820001208A9000000AF001208A800F001200083
:100830001402B600FDFF3A001442A8001442AF00B3
:10084000FEFF37000000EB001208AE000000E800D9
:1008500000000600F0FF2F001862AE001100370004
:10086000A21080007F016100FDFF3A001462A80021
:100870000100A70014A2A9000100A60014A2A8006C
:10088000A21080007F016100FDFF3A001482A800E1
:100890001802AE00FEFF37001082BF0012C2AF0088
:1008A00012C2A90000000600851F7800F8030200AC
:1008B000000000000004E000FCFF32001862AE00FF
:1008C000040037001422A8001422AF00FEFF3700F6
:1008D000030037001402A8001402AF00FEFF370027
:1008E00001CAB300E0030200000000000160EF0055
:1008F0000DC8BF000160EF0080427800F507B2002C
:1009000085407800E0030200000000000CC8BF0032
:100910000160EF0080427800F50FB200854078005A
:10092000E0030200000000001862AE00040037007F
:100930001422A8001422AF00FEFF37000300370086
:100940001402A8001402AF00FEFF370011CAB30062
:10095000E00302000000000001002000811F780079
:10096000CF0078002A040200000000000EE8B70063
:10097000F00120001402B600FDFF3A001442A80066
:100980001442AF00FEFF37000EC8BF000E68EC0037
:10099000CF02780000000600851F7800F8030200EF
:1009A000000000000004E000FCFF32001862AE000E
:1009B000040037001422A8001422AF00FEFF370005
:1009C000030037001402A8001402AF00FEFF370036
:1009D00001CAB300E0030200000000000160EF0064
:1009E0000DC8BF000160EF0080427800F507B2003B
:1009F00085407800E0030200000000000CC8BF0042
:100A00000160EF0080427800F50FB2008540780069
:100A1000E0030200000000000EC8BF0002E0B700C3
:100A2000E003020000000000F00120001402B60004
:100A3000FDFF3A001442A8001442AF00FEFF370049
:100A4000CF027800000006000FF82000F0FF200021
:100A500020A0B7000000000081E0A8004427EF00BC
:100A60000028EF00040028008411880004402000C2
:100A7000941188003062A80024022000C41188006C
:100A8000C842A800C862A8001602A9001622A90040
:100A90001662A90018C2A90018E2A800F0C9B300A4
:100AA0001AE2B70080C2B30012E2B700E024EF0000
:100AB000E224EF000428EF0001002000010078008C
:100AC0000160EF0000020200000000008100E80069
:100AD0003302AE00FEFF370034A2B70080002000D2
:100AE0000008E600F5FF3700FC02020000000000ED
:100AF0003202AE002C0037000203020000000000AA
:100B000003E8B700144080004822DE0013062000EE
:100B1000041CE10008003E00144080004822DE0072
:100B2000A3072000041CE1000300390003C8BF0034
:100B3000F04DB2000100370003C8BF0003E8B70062
:100B400003C8BF003302AE00FEFF370034E2B70037
:100B50003562EF00144080004822DE0024C5B20058
:100B600010003200144080004822DE0074C5B2003C
:100B70000C00320001002000010078000160EF004D
:100B800016020200000000008100E8003302AE00FF
:100B9000FEFF370034A2B700000120000008E60085
:100BA000F5FF370006003700144080004822DE00C1
:100BB00034C4B20002003A0014002000244088002F
:100BC0007E3E090000000000144080004822DE0044
:100BD00024C5B20004003200144080004822DE0028
:100BE00074C5B200C2FF3A00010020000100780085
:100BF0000160EF0034020200000000008100E80004
:100C00003302AE00FEFF370034A2B70030012000EF
:100C10000008E600F5FF3700800302000000000036
:100C200006E8B7000768EF0006C8BF0007E8B7008E
:100C30000668EF0080030200000000008042780098
:100C40008582FB00050078000628B400144080006F
:100C50004822DE0024C5B20062003A002440800031
:100C60006120E10041003A003302AE00FEFF370090
:100C7000D4002000A41188003302AE00FEFF37002C
:100C8000A4002000A41188000828EF004440800040
:100C90006920E10033003C000100200001007800E1
:100CA0000160EF0056020200000000008100E80031
:100CB0003302AE00FEFF370034A2B700300120003F
:100CC0000008E600F5FF37000688BF0041702000ED
:100CD000AC030200000000000608F8000C08F90050
:100CE000540402000000000080427800010020004F
:100CF000010078000160EF007A02020000000000AD
:100D00008100E8003302AE00FEFF370034A2B700D6
:100D1000F00020000008E600F5FF370005407800ED
:100D20000160EF0041702000AC03020000000000F1
:100D30003302AE00FEFF3700D4002000A41188006B
:100D40003302AE00FEFF3700A4002000A41188008B
:100D5000344080006100420006A8B7000828EC007B
:100D6000CAFF37000428EF001E0037000608F8000D
:100D70000C08F900540402000000000080427800D2
:100D800001002000010078000160EF007A020200FB
:100D9000000000008100E8003302AE00FEFF3700D3
:100DA00034A2B700F00020000008E600F5FF37008D
:100DB000054078000160EF0041702000AC030200A4
:100DC000000000003302AE00FEFF3700D400200018
:100DD000A41188003302AE00FEFF3700A4002000FB
:100DE000A4118800144080004822DE0074C5B200BF
:100DF00058003A00244080006120E10038003A00A9
:100E00000A28EF00544080006920E10032003C00D5
:100E100001002000010078000160EF009C02020048
:100E2000000000008100E8003302AE00FEFF370042
:100E300034A2B700200120000008E600F5FF3700CB
:100E40000688BF0041702000AC03020000000000D3
:100E500001002000010078000160EF00BE020200E6
:100E6000000000008100E8003302AE00FEFF370002
:100E700034A2B700300120000008E600F5FF37007B
:100E8000800302000000000002E8B70002C8BF00B3
:100E90000EE8B7000608F8000C08F900CC040200C0
:100EA000000000003302AE00FEFF3700D400200037
:100EB000A41188003302AE00FEFF3700A40020001A
:100EC000A4118800344080006100420006A8B700E9
:100ED0000A28EC00CBFF37000428EF001D00370084
:100EE00001002000010078000160EF00E002020034
:100EF000000000008100E8003302AE00FEFF370072
:100F000034A2B700E00020000008E600F5FF37003B
:100F1000800302000000000002E8B70002C8BF0022
:100F20000EE8B7000608F8000C08F900CC0402002F
:100F3000000000003302AE00FEFF3700D4002000A6
:100F4000A41188003302AE00FEFF3700A400200089
:100F5000A41188000368EF00E5FE37000040FE00A2
:0200000401F009
:100000000F0000FF000000FF030000FFE10000FF01
:10001000FB0000FF5F0000FFFF0000FF830000FF08
:00000001FF
;PIC24FV16KM202
;CRC=F983  CREATED="26-Oct-19 16:09"
